{
  "contractName": "TodoApp",
  "abi": [
    {
      "inputs": [
        {
          "internalType": "contract Token",
          "name": "_token",
          "type": "address"
        }
      ],
      "stateMutability": "nonpayable",
      "type": "constructor"
    },
    {
      "anonymous": false,
      "inputs": [
        {
          "indexed": true,
          "internalType": "address",
          "name": "user",
          "type": "address"
        },
        {
          "indexed": false,
          "internalType": "string",
          "name": "content",
          "type": "string"
        },
        {
          "indexed": false,
          "internalType": "uint256",
          "name": "deposit",
          "type": "uint256"
        },
        {
          "indexed": false,
          "internalType": "uint256",
          "name": "timeCreated",
          "type": "uint256"
        },
        {
          "indexed": false,
          "internalType": "uint256",
          "name": "timeToComplete",
          "type": "uint256"
        }
      ],
      "name": "TodoCompleted",
      "type": "event"
    },
    {
      "anonymous": false,
      "inputs": [
        {
          "indexed": true,
          "internalType": "address",
          "name": "user",
          "type": "address"
        },
        {
          "indexed": false,
          "internalType": "string",
          "name": "content",
          "type": "string"
        },
        {
          "indexed": false,
          "internalType": "uint256",
          "name": "deposit",
          "type": "uint256"
        },
        {
          "indexed": false,
          "internalType": "uint256",
          "name": "timeCreated",
          "type": "uint256"
        },
        {
          "indexed": false,
          "internalType": "uint256",
          "name": "timeToComplete",
          "type": "uint256"
        }
      ],
      "name": "TodoCreated",
      "type": "event"
    },
    {
      "anonymous": false,
      "inputs": [
        {
          "indexed": true,
          "internalType": "address",
          "name": "user",
          "type": "address"
        },
        {
          "indexed": false,
          "internalType": "string",
          "name": "content",
          "type": "string"
        },
        {
          "indexed": false,
          "internalType": "uint256",
          "name": "deposit",
          "type": "uint256"
        },
        {
          "indexed": false,
          "internalType": "uint256",
          "name": "timeCreated",
          "type": "uint256"
        },
        {
          "indexed": false,
          "internalType": "uint256",
          "name": "timeToComplete",
          "type": "uint256"
        }
      ],
      "name": "TodoFailed",
      "type": "event"
    },
    {
      "inputs": [
        {
          "internalType": "address",
          "name": "",
          "type": "address"
        }
      ],
      "name": "completedTodos",
      "outputs": [
        {
          "internalType": "uint256",
          "name": "",
          "type": "uint256"
        }
      ],
      "stateMutability": "view",
      "type": "function",
      "constant": true
    },
    {
      "inputs": [
        {
          "internalType": "address",
          "name": "",
          "type": "address"
        }
      ],
      "name": "failedTodos",
      "outputs": [
        {
          "internalType": "uint256",
          "name": "",
          "type": "uint256"
        }
      ],
      "stateMutability": "view",
      "type": "function",
      "constant": true
    },
    {
      "inputs": [
        {
          "internalType": "address",
          "name": "",
          "type": "address"
        },
        {
          "internalType": "uint256",
          "name": "",
          "type": "uint256"
        }
      ],
      "name": "todos",
      "outputs": [
        {
          "internalType": "uint256",
          "name": "id",
          "type": "uint256"
        },
        {
          "internalType": "string",
          "name": "content",
          "type": "string"
        },
        {
          "internalType": "uint256",
          "name": "deposit",
          "type": "uint256"
        },
        {
          "internalType": "uint256",
          "name": "timeCreated",
          "type": "uint256"
        },
        {
          "internalType": "uint256",
          "name": "timeToComplete",
          "type": "uint256"
        },
        {
          "internalType": "bool",
          "name": "completed",
          "type": "bool"
        }
      ],
      "stateMutability": "view",
      "type": "function",
      "constant": true
    },
    {
      "inputs": [
        {
          "internalType": "address",
          "name": "_user",
          "type": "address"
        }
      ],
      "name": "getAmountOfTodos",
      "outputs": [
        {
          "internalType": "uint256",
          "name": "",
          "type": "uint256"
        }
      ],
      "stateMutability": "view",
      "type": "function",
      "constant": true
    },
    {
      "inputs": [
        {
          "internalType": "address",
          "name": "_user",
          "type": "address"
        }
      ],
      "name": "getAmountOfCompletedTodos",
      "outputs": [
        {
          "internalType": "uint256",
          "name": "",
          "type": "uint256"
        }
      ],
      "stateMutability": "view",
      "type": "function",
      "constant": true
    },
    {
      "inputs": [
        {
          "internalType": "address",
          "name": "_user",
          "type": "address"
        }
      ],
      "name": "getAmountOfFailedTodos",
      "outputs": [
        {
          "internalType": "uint256",
          "name": "",
          "type": "uint256"
        }
      ],
      "stateMutability": "view",
      "type": "function",
      "constant": true
    },
    {
      "inputs": [
        {
          "internalType": "string",
          "name": "_content",
          "type": "string"
        },
        {
          "internalType": "uint256",
          "name": "_timeToComplete",
          "type": "uint256"
        }
      ],
      "name": "createTodo",
      "outputs": [],
      "stateMutability": "payable",
      "type": "function",
      "payable": true
    },
    {
      "inputs": [
        {
          "internalType": "uint256",
          "name": "_id",
          "type": "uint256"
        }
      ],
      "name": "completeTodo",
      "outputs": [],
      "stateMutability": "nonpayable",
      "type": "function"
    },
    {
      "inputs": [
        {
          "internalType": "uint256",
          "name": "_id",
          "type": "uint256"
        }
      ],
      "name": "failTodo",
      "outputs": [],
      "stateMutability": "nonpayable",
      "type": "function"
    },
    {
      "inputs": [
        {
          "internalType": "uint256",
          "name": "_id",
          "type": "uint256"
        }
      ],
      "name": "removeTodo",
      "outputs": [],
      "stateMutability": "nonpayable",
      "type": "function"
    }
  ],
  "bytecode": "0x608060405234801561001057600080fd5b506040516118b03803806118b08339818101604052602081101561003357600080fd5b810190808051906020019092919050505080600360006101000a81548173ffffffffffffffffffffffffffffffffffffffff021916908373ffffffffffffffffffffffffffffffffffffffff1602179055505061181b806100956000396000f3fe6080604052600436106100915760003560e01c80633be3d703116100595780633be3d70314610265578063428c1889146102a05780638dc337df14610399578063ece28c6c146103d4578063ece5e3b41461049957610091565b8063076225001461009657806312940d8b146100fb5780631d7effe61461016057806320fe2144146101c557806339ed776114610200575b600080fd5b3480156100a257600080fd5b506100e5600480360360208110156100b957600080fd5b81019080803573ffffffffffffffffffffffffffffffffffffffff1690602001909291905050506104fe565b6040518082815260200191505060405180910390f35b34801561010757600080fd5b5061014a6004803603602081101561011e57600080fd5b81019080803573ffffffffffffffffffffffffffffffffffffffff169060200190929190505050610516565b6040518082815260200191505060405180910390f35b34801561016c57600080fd5b506101af6004803603602081101561018357600080fd5b81019080803573ffffffffffffffffffffffffffffffffffffffff169060200190929190505050610561565b6040518082815260200191505060405180910390f35b3480156101d157600080fd5b506101fe600480360360208110156101e857600080fd5b81019080803590602001909291905050506105aa565b005b34801561020c57600080fd5b5061024f6004803603602081101561022357600080fd5b81019080803573ffffffffffffffffffffffffffffffffffffffff169060200190929190505050610bc8565b6040518082815260200191505060405180910390f35b34801561027157600080fd5b5061029e6004803603602081101561028857600080fd5b8101908080359060200190929190505050610be0565b005b3480156102ac57600080fd5b506102f9600480360360408110156102c357600080fd5b81019080803573ffffffffffffffffffffffffffffffffffffffff16906020019092919080359060200190929190505050610e9a565b60405180878152602001806020018681526020018581526020018481526020018315158152602001828103825287818151815260200191508051906020019080838360005b8381101561035957808201518184015260208101905061033e565b50505050905090810190601f1680156103865780820380516001836020036101000a031916815260200191505b5097505050505050505060405180910390f35b3480156103a557600080fd5b506103d2600480360360208110156103bc57600080fd5b8101908080359060200190929190505050610f98565b005b610497600480360360408110156103ea57600080fd5b810190808035906020019064010000000081111561040757600080fd5b82018360208201111561041957600080fd5b8035906020019184600183028401116401000000008311171561043b57600080fd5b91908080601f016020809104026020016040519081016040528093929190818152602001838380828437600081840152601f19601f820116905080830192505050505050509192919290803590602001909291905050506113c4565b005b3480156104a557600080fd5b506104e8600480360360208110156104bc57600080fd5b81019080803573ffffffffffffffffffffffffffffffffffffffff169060200190929190505050611614565b6040518082815260200191505060405180910390f35b60016020528060005260406000206000915090505481565b60008060008373ffffffffffffffffffffffffffffffffffffffff1673ffffffffffffffffffffffffffffffffffffffff168152602001908152602001600020805490509050919050565b6000600160008373ffffffffffffffffffffffffffffffffffffffff1673ffffffffffffffffffffffffffffffffffffffff168152602001908152602001600020549050919050565b6000803373ffffffffffffffffffffffffffffffffffffffff1673ffffffffffffffffffffffffffffffffffffffff16815260200190815260200160002081815481106105f357fe5b906000526020600020906006020160050160009054906101000a900460ff1615610685576040517f08c379a000000000000000000000000000000000000000000000000000000000815260040180806020018281038252601f8152602001807f4552524f522c20746f646f20697320616c726561647920636f6d706c6574650081525060200191505060405180910390fd5b8061068f33610516565b11610702576040517f08c379a00000000000000000000000000000000000000000000000000000000081526004018080602001828103825260138152602001807f4552524f522c20696e76616c696420746f646f0000000000000000000000000081525060200191505060405180910390fd5b426000803373ffffffffffffffffffffffffffffffffffffffff1673ffffffffffffffffffffffffffffffffffffffff168152602001908152602001600020828154811061074c57fe5b906000526020600020906006020160040154116107d1576040517f08c379a00000000000000000000000000000000000000000000000000000000081526004018080602001828103825260158152602001807f4552524f522c20546f646f206661696c6564203a28000000000000000000000081525060200191505060405180910390fd5b60008060003373ffffffffffffffffffffffffffffffffffffffff1673ffffffffffffffffffffffffffffffffffffffff168152602001908152602001600020828154811061081c57fe5b90600052602060002090600602016040518060c001604052908160008201548152602001600182018054600181600116156101000203166002900480601f0160208091040260200160405190810160405280929190818152602001828054600181600116156101000203166002900480156108d85780601f106108ad576101008083540402835291602001916108d8565b820191906000526020600020905b8154815290600101906020018083116108bb57829003601f168201915b505050505081526020016002820154815260200160038201548152602001600482015481526020016005820160009054906101000a900460ff1615151515815250509050600081604001511115610a27573373ffffffffffffffffffffffffffffffffffffffff166108fc82604001519081150290604051600060405180830381858888f19350505050158015610973573d6000803e3d6000fd5b50600360009054906101000a900473ffffffffffffffffffffffffffffffffffffffff1673ffffffffffffffffffffffffffffffffffffffff166340c10f193360648460400151026040518363ffffffff1660e01b8152600401808373ffffffffffffffffffffffffffffffffffffffff16815260200182815260200192505050600060405180830381600087803b158015610a0e57600080fd5b505af1158015610a22573d6000803e3d6000fd5b505050505b60016000803373ffffffffffffffffffffffffffffffffffffffff1673ffffffffffffffffffffffffffffffffffffffff1681526020019081526020016000208381548110610a7257fe5b906000526020600020906006020160050160006101000a81548160ff021916908315150217905550600160003373ffffffffffffffffffffffffffffffffffffffff1673ffffffffffffffffffffffffffffffffffffffff168152602001908152602001600020600081548092919060010191905055503373ffffffffffffffffffffffffffffffffffffffff167fbad376b916ddec449bbec3b9c5492be153d7289c61068e8c3efcb64223f4978f82602001518360400151846060015185608001516040518080602001858152602001848152602001838152602001828103825286818151815260200191508051906020019080838360005b83811015610b87578082015181840152602081019050610b6c565b50505050905090810190601f168015610bb45780820380516001836020036101000a031916815260200191505b509550505050505060405180910390a25050565b60026020528060005260406000206000915090505481565b6000610beb33610516565b9050808210610c62576040517f08c379a00000000000000000000000000000000000000000000000000000000081526004018080602001828103825260138152602001807f4552524f522c20696e76616c696420746f646f0000000000000000000000000081525060200191505060405180910390fd5b6000803373ffffffffffffffffffffffffffffffffffffffff1673ffffffffffffffffffffffffffffffffffffffff1681526020019081526020016000206001820381548110610cae57fe5b90600052602060002090600602016000803373ffffffffffffffffffffffffffffffffffffffff1673ffffffffffffffffffffffffffffffffffffffff1681526020019081526020016000208381548110610d0557fe5b90600052602060002090600602016000820154816000015560018201816001019080546001816001161561010002031660029004610d4492919061165d565b506002820154816002015560038201548160030155600482015481600401556005820160009054906101000a900460ff168160050160006101000a81548160ff021916908315150217905550905050816000803373ffffffffffffffffffffffffffffffffffffffff1673ffffffffffffffffffffffffffffffffffffffff1681526020019081526020016000208381548110610ddd57fe5b9060005260206000209060060201600001819055506000803373ffffffffffffffffffffffffffffffffffffffff1673ffffffffffffffffffffffffffffffffffffffff168152602001908152602001600020805480610e3957fe5b6001900381819060005260206000209060060201600080820160009055600182016000610e6691906116f2565b6002820160009055600382016000905560048201600090556005820160006101000a81549060ff0219169055505090555050565b60006020528160005260406000208181548110610eb657600080fd5b906000526020600020906006020160009150915050806000015490806001018054600181600116156101000203166002900480601f016020809104026020016040519081016040528092919081815260200182805460018160011615610100020316600290048015610f695780601f10610f3e57610100808354040283529160200191610f69565b820191906000526020600020905b815481529060010190602001808311610f4c57829003601f168201915b5050505050908060020154908060030154908060040154908060050160009054906101000a900460ff16905086565b6000803373ffffffffffffffffffffffffffffffffffffffff1673ffffffffffffffffffffffffffffffffffffffff1681526020019081526020016000208181548110610fe157fe5b906000526020600020906006020160050160009054906101000a900460ff1615611073576040517f08c379a000000000000000000000000000000000000000000000000000000000815260040180806020018281038252601f8152602001807f4552524f522c20746f646f20697320616c726561647920636f6d706c6574650081525060200191505060405180910390fd5b426000803373ffffffffffffffffffffffffffffffffffffffff1673ffffffffffffffffffffffffffffffffffffffff16815260200190815260200160002082815481106110bd57fe5b90600052602060002090600602016004015411611142576040517f08c379a00000000000000000000000000000000000000000000000000000000081526004018080602001828103825260148152602001807f4552524f522c2054696d65206e6f74206f76657200000000000000000000000081525060200191505060405180910390fd5b60008060003373ffffffffffffffffffffffffffffffffffffffff1673ffffffffffffffffffffffffffffffffffffffff168152602001908152602001600020828154811061118d57fe5b90600052602060002090600602016040518060c001604052908160008201548152602001600182018054600181600116156101000203166002900480601f0160208091040260200160405190810160405280929190818152602001828054600181600116156101000203166002900480156112495780601f1061121e57610100808354040283529160200191611249565b820191906000526020600020905b81548152906001019060200180831161122c57829003601f168201915b505050505081526020016002820154815260200160038201548152602001600482015481526020016005820160009054906101000a900460ff161515151581525050905061129682610be0565b600260003373ffffffffffffffffffffffffffffffffffffffff1673ffffffffffffffffffffffffffffffffffffffff168152602001908152602001600020600081548092919060010191905055503373ffffffffffffffffffffffffffffffffffffffff167ff1f2af0a0e2dde547597671a50babbaffcd90ae787a25ef545bb2fec206e0e4182602001518360400151846060015185608001516040518080602001858152602001848152602001838152602001828103825286818151815260200191508051906020019080838360005b83811015611383578082015181840152602081019050611368565b50505050905090810190601f1680156113b05780820380516001836020036101000a031916815260200191505b509550505050505060405180910390a25050565b428111611439576040517f08c379a00000000000000000000000000000000000000000000000000000000081526004018080602001828103825260138152602001807f4552524f522c20496e76616c69642074696d650000000000000000000000000081525060200191505060405180910390fd5b600061144433610516565b90506000803373ffffffffffffffffffffffffffffffffffffffff1673ffffffffffffffffffffffffffffffffffffffff1681526020019081526020016000206040518060c0016040528083815260200185815260200134815260200142815260200184815260200160001515815250908060018154018082558091505060019003906000526020600020906006020160009091909190915060008201518160000155602082015181600101908051906020019061150392919061173a565b5060408201518160020155606082015181600301556080820151816004015560a08201518160050160006101000a81548160ff02191690831515021790555050503373ffffffffffffffffffffffffffffffffffffffff167f02dc14cf63428c246fddbee34f9e9cef2b23b060e7d980b257e1ab2c0089a1db843442866040518080602001858152602001848152602001838152602001828103825286818151815260200191508051906020019080838360005b838110156115d25780820151818401526020810190506115b7565b50505050905090810190601f1680156115ff5780820380516001836020036101000a031916815260200191505b509550505050505060405180910390a2505050565b6000600260008373ffffffffffffffffffffffffffffffffffffffff1673ffffffffffffffffffffffffffffffffffffffff168152602001908152602001600020549050919050565b828054600181600116156101000203166002900490600052602060002090601f01602090048101928261169357600085556116e1565b82601f106116a457805485556116e1565b828001600101855582156116e157600052602060002091601f016020900482015b828111156116e05782548255916001019190600101906116c5565b5b5090506116ee91906117c8565b5090565b50805460018160011615610100020316600290046000825580601f106117185750611737565b601f01602090049060005260206000209081019061173691906117c8565b5b50565b828054600181600116156101000203166002900490600052602060002090601f01602090048101928261177057600085556117b7565b82601f1061178957805160ff19168380011785556117b7565b828001600101855582156117b7579182015b828111156117b657825182559160200191906001019061179b565b5b5090506117c491906117c8565b5090565b5b808211156117e15760008160009055506001016117c9565b509056fea264697066735822122034bfc69b468455ad639ebaf855c2b820daccff776be95e4d9a90fb457a70717c64736f6c63430007060033",
  "immutableReferences": {},
  "source": "pragma solidity >=0.6.0 <0.8.0;\r\n\r\nimport \"@openzeppelin/contracts/token/ERC20/ERC20.sol\";\r\nimport \"./Token.sol\";\r\n\r\ncontract TodoApp {\r\n\r\n  struct Todo {\r\n      uint id;\r\n      string content;\r\n      uint deposit;\r\n      uint timeCreated;\r\n      uint timeToComplete;\r\n      bool completed;\r\n  }\r\n\r\n  mapping (address => Todo[]) public todos;\r\n  mapping (address => uint) public completedTodos;\r\n  mapping (address => uint) public failedTodos;\r\n\r\n  event TodoCreated(address indexed user, string content, uint deposit, uint timeCreated, uint timeToComplete);\r\n  event TodoCompleted(address indexed user, string content, uint deposit, uint timeCreated, uint timeToComplete);\r\n  event TodoFailed(address indexed user, string content, uint deposit, uint timeCreated, uint timeToComplete);\r\n\r\n  Token token;\r\n\r\n  constructor(Token _token) public {\r\n    token = _token;\r\n  }\r\n\r\n  function getAmountOfTodos(address _user) public view returns (uint) {\r\n    return todos[_user].length;\r\n  }\r\n\r\n  function getAmountOfCompletedTodos(address _user) public view returns (uint) {\r\n    return completedTodos[_user];\r\n  }\r\n\r\n  function getAmountOfFailedTodos(address _user) public view returns (uint) {\r\n    return failedTodos[_user];\r\n  }\r\n\r\n  function createTodo(string memory _content, uint _timeToComplete) payable public {\r\n    require(_timeToComplete > block.timestamp, \"ERROR, Invalid time\");\r\n    uint id = getAmountOfTodos(msg.sender);\r\n    todos[msg.sender].push(Todo(id, _content, msg.value, block.timestamp, _timeToComplete, false));\r\n\r\n\r\n    emit TodoCreated(msg.sender, _content, msg.value, block.timestamp, _timeToComplete);\r\n  }\r\n\r\n  function completeTodo(uint _id) public {\r\n    require(!todos[msg.sender][_id].completed, \"ERROR, todo is already complete\");\r\n    require(getAmountOfTodos(msg.sender) > _id, \"ERROR, invalid todo\");\r\n    require(todos[msg.sender][_id].timeToComplete > block.timestamp, \"ERROR, Todo failed :(\");\r\n    Todo memory todo = todos[msg.sender][_id];\r\n    if(todo.deposit > 0) {\r\n      msg.sender.transfer(todo.deposit);\r\n      token.mint(msg.sender, todo.deposit*100);\r\n    }\r\n\r\n    todos[msg.sender][_id].completed = true;\r\n    completedTodos[msg.sender]++;\r\n    emit TodoCompleted(msg.sender, todo.content, todo.deposit, todo.timeCreated, todo.timeToComplete);\r\n  }\r\n\r\n  function failTodo(uint _id) public {\r\n    require(!todos[msg.sender][_id].completed, \"ERROR, todo is already complete\");\r\n    require(todos[msg.sender][_id].timeToComplete > block.timestamp, \"ERROR, Time not over\");\r\n    Todo memory todo = todos[msg.sender][_id];\r\n    removeTodo(_id);\r\n    failedTodos[msg.sender]++;\r\n    emit TodoFailed(msg.sender, todo.content, todo.deposit, todo.timeCreated, todo.timeToComplete);\r\n  }\r\n\r\n  function removeTodo(uint _id) public {\r\n    uint lengthOfTodos = getAmountOfTodos(msg.sender);\r\n    require(_id < lengthOfTodos, \"ERROR, invalid todo\");\r\n\r\n    todos[msg.sender][_id] = todos[msg.sender][lengthOfTodos-1];\r\n    todos[msg.sender][_id].id = _id;\r\n\r\n    todos[msg.sender].pop();\r\n  }\r\n\r\n\r\n}",
  "sourcePath": "C:/Users/William/Desktop/blockchain/Todo-App/src/contracts/TodoApp.sol",
  "compiler": {
    "name": "solc",
    "version": "0.7.6+commit.7338295f.Emscripten.clang"
  },
  "schemaVersion": "3.4.0",
  "updatedAt": "2021-06-02T15:27:33.219Z",
  "networkType": "ethereum",
  "devdoc": {
    "kind": "dev",
    "methods": {},
    "version": 1
  },
  "userdoc": {
    "kind": "user",
    "methods": {},
    "version": 1
  }
}